:020000040800F2
:10000000486500207902000895560008AB240008D6
:100010006156000855190008B7620008000000008A
:1000200000000000000000000000000095580008DB
:100030005F220008000000001D5700085D5A0008FC
:10004000930200089302000893020008930200083C
:10005000930200089302000893020008930200082C
:10006000930200089302000893020008930200081C
:10007000930200089302000893020008930200080C
:1000800093020008930200089302000893020008FC
:1000900093020008930200089302000893020008EC
:1000A00093020008930200089302000893020008DC
:1000B00093020008C15A0008930200089302000846
:1000C00093020008930200089302000893020008BC
:1000D00093020008695F000893020008F15F0008BE
:1000E000930200089302000893020008930200089C
:1000F000930200089302000893020008930200088C
:10010000930200089302000893020008930200087B
:10011000930200089302000893020008655B000840
:10012000930200089302000893020008930200085B
:1001300000F002F800F090F80AA090E8000C824469
:100140008344AAF10107DA4501D100F085F8AFF246
:10015000090EBAE80F0013F0010F18BFFB1A43F0A5
:10016000010318471C4701003C470100103A24BF17
:1001700078C878C1FAD8520724BF30C830C144BF0C
:1001800004680C607047000000230024002500264E
:10019000103A28BF78C1FBD8520728BF30C148BFEA
:1001A0000B6070476E2900F01F83702900F02381D7
:1001B000662907F04D81652907F04A81672907F014
:1001C00047816129AFF3008003681B0A28BF41F013
:1001D0008001692900F0CC82642900F0C982752968
:1001E00000F0C6826F2900F01684782900F0EF80B5
:1001F000E92900F0B183E42900F0AE83F52900F08D
:10020000AB83EF2900F01384F82900F0EE80036837
:10021000DB0928BF41F08001632900F020837329A6
:1002200000F02583E32900F06B86F32900F0708647
:10023000002070471FB500F0C1FE0400002000211F
:1002400006F0B2FF401C60600020002106F096FF1F
:10025000E0601FBD10B510BD00F082FE1146FFF733
:10026000E9FF06F0C1FA00F05FFF03B4FFF7F2FF09
:1002700003BC06F086F8000009488047094800479B
:10028000FEE7FEE7FEE7FEE7FEE7FEE7FEE7FEE746
:10029000FEE7FEE704480549054A064B70470000A3
:1002A000615A000831010008485F002048650020BD
:1002B0004861002048610020704700001CB50C46D2
:1002C000064B7B4469460090204600F0A6FA04469F
:1002D0000020694600F0B4FA20461CBD7B050000F2
:1002E0000FB4044910B503AA029800F0C5FA10BC77
:1002F0005DF814FB840000200FB41CB5084B06AA5F
:100300007B4469460090059800F087FA0446002077
:10031000694600F095FA20461CBC5DF814FB00000D
:100320003D05000070B50C460546012A05D0287829
:10033000800600D5EA69002302E0012305E05B1C8A
:10034000934202D2E05C0028F9D1A869E618C01AED
:10035000A861286A18442862284600F077F904E06A
:10036000D5E9012114F8010B9047B442F8D328468F
:1003700000F082F970BD0000F0B40D460188090557
:1003800002D5214C7C4402E01F4C7C440E340021F9
:1003900000F1240608E002F00F071209E75D42EAC7
:1003A00003721B097754491C52EA0307F3D1027800
:1003B0000023120704D5702D06D009B10223113491
:1003C0002246F0BC00F07BB901231034F8E770B589
:1003D00004460D462146106800F068F90246294699
:1003E0002046BDE870400023C6E7D21D22F0070377
:1003F000D3E90023C0E70368126843F020030360D9
:100400000823C3610023B7E7E84201002DE9F05F4C
:10041000894604464FF0000ADFF874B1FB44C0F887
:1004200020A02046E1688847002874D0252806D0FF
:10043000D4E901219047206A401C2062F1E70026A0
:100440005F462046E16888472028054607DB312DB6
:1004500005D2781910F8200C08B10643F1E7B0076F
:1004600001D526F00406C4F81CA00027C4F818A083
:100470002A2D09D0284605F07DFF38B304EB870804
:10048000303DC8F8185019E059F8041B204604EB19
:1004900087029161E1688847012F054618D1E0691C
:1004A000002820DA26F020061DE0D8F8180000EB1E
:1004B000800005EB40003038C8F818002046E1689D
:1004C0008847054605F056FF0028EED1012F0AD0D7
:1004D0002E2D08D12046E16888477F1C0546022F53
:1004E00046F02006C4DBA069002803DA404246F04B
:1004F0000106A061F00701D026F010066C2D0BD08C
:10050000682D09D04C2D39D06A2D35D0742D35D0B9
:100510007A2D33D016E038E0E1682F462046884730
:10052000B842054609D16C2F26D04FF48060E168AF
:10053000064320468847054604E06C2F1AD04FF446
:10054000807006430DB3A5F14100192802D820356B
:1005500046F400664A462946204626604E46FFF786
:1005600021FE80B101280BD0F61D26F0070000F116
:10057000080956E74020E4E78020D8E70020D6E7C6
:1005800006F104094DE7284652E7206ABDE8F09FCE
:100590007842010030B505460B462A4613F8014B58
:1005A00012F8010B08B1A042F8D01CB1002802D00B
:1005B0006D1CF1E7284630BD10B5431C02E010F871
:1005C000011B71B18107FAD14FF0013202C88C1AB8
:1005D0008C4314EAC211F9D0C01A0A0603D0C01E17
:1005E00010BDC01A10BD0A0401D0801E10BD090242
:1005F000FCD0401E10BD4FF0000200B513469446DB
:100600009646203922BFA0E80C50A0E80C50B1F16A
:100610002001BFF4F7AF090728BFA0E80C5048BF7E
:100620000CC05DF804EB890028BF40F8042B08BF1C
:10063000704748BF20F8022B11F0804F18BF00F818
:10064000012B7047704770477047704770B504467C
:1006500085690068C10601D5302600E02026C00764
:1006600007D070BDD4E9012130469047206A401C74
:1006700020626D1EF6D570BD70B5044685690078A0
:10068000C00707D170BDD4E9012120209047206A1E
:10069000401C20626D1EF6D570BD09684A0501D563
:1006A00040B27047C905FCD500B2704709684A05D9
:1006B00001D5C0B27047C905FCD580B270472DE99D
:1006C000F0470D4699469246044600F12408016819
:1006D000880604D5E06921F01001216000E00120C6
:1006E000A84201DD471B00E00027A1697A1902EB4F
:1006F0000900081AA0612078C00602D42046FFF73E
:10070000A5FF002608E0D4E901211AF80600904769
:10071000206A401C761C20624E45F4DB2078C0061F
:100720000AD52046FFF792FF06E0D4E901213020E8
:100730009047206A401C2062381EA7F10107F4DCB4
:1007400007E0D4E9012118F805009047206A401C11
:100750002062281EA5F10105F3DC2046FFF78CFF7F
:100760002078000602D50220BDE8F0870120FBE7D3
:100770002DE9F0410646002410687529314616A57A
:1007800010D0FFF78AFF002802DA404213A507E0E5
:1007900031688A0701D512A502E0490704D511A5E1
:1007A000012401E0FFF782FF00210A2206F124075D
:1007B00009E0B0FBF2FCB0FBF2F302FB1C003030AE
:1007C00078541846491C0028F3D123462A4630465F
:1007D000BDE8F041FFF773BF000000002D000000EE
:1007E0002B0000002000000011680268006A530519
:1007F00001D508700AE0D30501D5088006E013068C
:1008000003D5C217C1E9000200E00860012070476B
:1008100001694A1C02610878704700B58FB0CDE9C4
:1008200001310021059105497944CDE903101146B4
:100830006846FFF7EBFD0FB000BD0000E5FFFFFFCE
:100840000A6802F8010B0A60704710B5436913B1DA
:10085000AFF3008001E0FFF765FD012010BD1278C5
:1008600000F124010A7000224A700122EDE71168AC
:100870004FF0FF32E9E70000074B70B50D467B44AF
:10088000FFF7CBFF0446284600F046FB10B14FF0BF
:10089000FF3070BD204670BD0B5E00002DE9FF5F8C
:1008A00015468A460446DFF8AC80F8440027D8E9AC
:1008B00000103E46CDE9001010E03AF816106A46E6
:1008C00002A800F02DFB411C07D02178890603D532
:1008D000E269391891420DD80744761C20788006C9
:1008E00002D5E069B84205DDAE42E6DB3AF8160013
:1008F0000028E2D1A069C01BA0612046FFF7A6FE38
:10090000D8E90010CDE90010002017E03AF81810DF
:100910006A4602A800F004FBB0F1FF3F81460BD00D
:1009200000250DF1080B05E0D4E901211BF80500B5
:1009300090476D1C4D45F7D308F10100B042804649
:10094000E4DB206A384420622046FFF795FEBDE8CC
:10095000FF9F0000FE3D01002DE9F0418046D21DC1
:1009600022F007020025D2E90002F52915A614D0CD
:10097000011E72F1000106DA0023D0EB030063EBE5
:10098000020211A608E0D8F800108B0701D50FA6C7
:1009900002E0490701D50EA601251146002408F101
:1009A000240704E000F04EF830323A55641C50EA57
:1009B0000102F7D12B46324621464046BDE8F041C0
:1009C000FFF77DBE000000002D0000002B0000009E
:1009D0002000000030B4002100F1240408E002F0FF
:1009E0000705D208303542EA4372DB086554491CDA
:1009F00052EA0305F3D10468002310A2250707D5A6
:100A0000A40600D421B1C46901230DA2641EC461EF
:100A100030BCFFF754BE10B5044621461068FFF7FE
:100A200045FE02462046BDE810400023D2E7D21D15
:100A300022F00701D1E90023CCE70000000000000C
:100A40003000000030B5B0F10A024FEA900E71F1AB
:100A500000034EEA817EB0EB0E0061EB91014FEA9C
:100A6000101E4EEA017E10EB0E0041EB11114FEA11
:100A7000102E4EEA016E10EB0E0041EB11214FEAF1
:100A8000104E4EEA014E10EB0E0041EB11414018A2
:100A900041F100014FEAD00040EA41704FEAD10134
:100AA00010EB80054FEA810444EA907444EB0104A2
:100AB0006D1944EB0404521BA3414FF0000348BFDF
:100AC0000A3200D530BD401C41F1000130BD7047F5
:100AD0002DE9FF4F0C461E464FF0FF378BB0D2E991
:100AE0000001DDF860800A908A46C1F30A5505B915
:100AF0003D46002108464FF00000BAF1000F00F417
:100B0000400005DA00EB80004FF4400101EA50009C
:100B10004FEA9059B9F1010F00DDB9460A9850EA41
:100B20004A000ED044F61050A5F2FF3545432F146D
:100B3000B8F1000F1ED07542291E1EDDC9F100025A
:100B40001CE0B8F1010F4FF0000001D0302103E0AC
:100B5000F24305E02154401CB042FBDB304600224A
:100B6000002121540B99C1F80880C1E900200FB081
:100B7000BDE8F08FBD1B6D1CDEE74A4600DA694216
:100B800006A800F05FFA06AB93E8070003AB83E822
:100B9000070050460A9900F015FB8DE80700A0F504
:100BA00000501F3800900398002D0ADD42F21F010B
:100BB0004A460844002303A90390684600F07EFDDE
:100BC00009E0A0F500504A461F38002303A903900E
:100BD000684600F088FD8DE807000004000C03D093
:100BE0004FF0FF30410800E01046B8F1000F03D08D
:100BF0000022009215461EE0751E05D4FFF722FF65
:100C0000303262556D1EF9D5B3460122084302D039
:100C100000227F1C04E02078302801D100227F1EB2
:100C2000002A099784D01DE0112D07DAFFF70AFF8B
:100C3000303262556D1C50EA0102F5D1084302D0F2
:100C40000098C8B10EE00021681E05E0235C625CDC
:100C500063542254401E491C8142F7DBAB46A81B5B
:100C6000401E0990002004F80B000B98099AC0F868
:100C70000880C0E9002B7AE711264FF0000857E7FB
:100C80002DE9F04F88460446D21D22F0070191B0AD
:100C9000D1E90001CDE90A0105F058FB02460B98A5
:100CA000C00F01D02D2007E02068810701D52B203F
:100CB00002E0202101EAC000032A099001D0072A9E
:100CC00005DB03464146204600F07CF90BE1207825
:100CD000800601D5E06900E00620B8F1650F814685
:100CE00006D0B8F1660F18D0B8F1670F70D131E0B7
:100CF0000020B9F1110F009001DB112301E009F18F
:100D000001030AAA01A90CA8FFF7E2FEDDE90C70B5
:100D1000002609F10105834647E001204B4600907B
:100D20004FF000470AAA01A90CA8FFF7D1FEDDE9A0
:100D30000DB00C995D46002610B909F101000D189F
:100D4000B9EB050003D4C0F1FF3609F10105A5EBAD
:100D500009002BE0B9F1010F01DA4FF00109002081
:100D6000B9F1110F0090484601DD112300E0034660
:100D70000AAA01A90CA8FFF7ABFEDDE90C704D46ED
:100D800000268346207800070AD4AB4500DA5D468A
:100D900001A8012D04DD411911F8011C302907D0EB
:100DA0004F4502DA17F1040F04DA012082460FE002
:100DB0006D1EEEE7002F02DCED1B3E4403E0781CC5
:100DC000A84200DD7D1CB81B00F1010A4FF000476E
:100DD0002078000703D4AA4501DB4FF0FF3A002139
:100DE000B7F1004F0DF143088DF8431024D00220D5
:100DF0002B23002F01DA7F422D230A21021EA0F1AE
:100E0000010000DC5FB197FBF1FC97FBF1F201FB05
:100E10001C7C17460CF1300C08F801CDEEE7A8F168
:100E2000010003702188090501D5452100E06521F5
:100E3000A0F1010800F8011C09980FA9A1EB08070F
:100E4000FF1D00B10120411901EBEA70A16938448E
:100E5000081A401EA0612078C00602D42046FFF781
:100E6000F5FB099828B1D4E901219047206A401C7C
:100E700020622078C00622D52046FFF7E7FB1EE05F
:100E8000002E04DBB34502DD01A8805D00E03020C8
:100E9000D4E901219047206A401C2062761CAAF107
:100EA00001005FEA000A0AD100F088F8C068016812
:100EB000405CD4E901219047206A401C2062281E32
:100EC000A5F10105DCDC07E0D4E9012118F8010BEC
:100ED0009047206A401C2062381EA7F10107F3DC0E
:100EE0002046FFF7C9FB032011B041E610B5436966
:100EF00013B1AFF3008001E0FFF7D0FC012010BD7B
:100F0000128800F1240182840022C2840122EDE7CC
:100F100011684FF0FF32E9E7007B00F08000704776
:100F200070B516460C46054600F040F8036893F885
:100F30000101012806D0FF2C0FD8185D68B10120EF
:100F40002C7070BDD3F807013246214603F2071317
:100F500003442846BDE8704018474FF0FF3070BD8D
:100F6000754600F0EBF8AE4605006946534620F0A2
:100F70000700854618B020B5FFF78CF9BDE8204082
:100F80004FF000064FF000074FF000084FF0000B45
:100F900021F00701AC46ACE8C009ACE8C009ACE8F8
:100FA000C009ACE8C0098D467047000010B500F0DC
:100FB00005F8001D10BD00BFF1610000004870473A
:100FC000085F00202DE9F0411F4604460326016812
:100FD000072A01F4006004DB08B116A505E016A598
:100FE00003E008B115A500E015A521F01000206070
:100FF000A069C01EA0610FB1401EA0612046FFF78E
:1010000025FB4FB1D4E9012138469047206A401CA6
:101010002062C01C206206E0206AFAE7D4E90121C0
:1010200015F8010B9047761EF8D22046FFF724FBF7
:10103000BDE8F0814E414E006E616E00494E4600A3
:10104000696E66002DE9F047814616468AB035483C
:1010500078440DC88DE80D0032487844801C03ACFC
:101060000DC884E80D0041F69B300844372190FB01
:10107000F1F290FBF1F5A5F1800501FB12041B3C98
:1010800002D56442012000E00020DFF898A08046ED
:101090000027FA44AAF1BE0A0EE0E0070AD0324661
:1010A000684607EB470101230AEB810100F01BFBB7
:1010B0008DE8070064107F1C002CEED1194F7F448F
:1010C000AE3F19E0E80715D007EB04100DF1180A40
:1010D00090E80E008AE80E00C068F04201D198192D
:1010E00008903246012306A903A800F0FCFA03ABDE
:1010F00083E807006D10641C002DE3D14FF001035D
:1011000032466946B8F1000F03A802D000F0D6FAC3
:1011100001E000F0E8FAC9E90001C9F808200AB0C6
:10112000BDE8F087DC36010010B50446AFF300805F
:101130002046BDE81040FFF798B80000004870470F
:10114000E85E00204FF0013C50F8042B51F8043BBE
:101150009A4221D1A2EB0C03934313EACC1317D18B
:1011600050F8042B51F8043B9A4215D1A2EB0C0322
:10117000934313EACC130BD150F8042B51F8043BE2
:101180009A4209D1A2EB0C03934313EACC13DBD0B0
:101190004FF00000704700BFD01A01BAB1FA81F1D8
:1011A00001F0180122FA01F0CB40C1F12001DBB2BD
:1011B000C0B2C01A2CFA01F3D11A914311EAC3113B
:1011C000E6D170475FEA400C08BF91F0000F4FEA8C
:1011D0008C234FEAC12243EA51514FEA1C5018BFF9
:1011E00000F5F0404FEA300018BF41F000415FEADF
:1011F0006C5C00F02980BCF1FF3F08BF40F08040EC
:101200007047130C06BF12044FF0100C4FF0000C87
:10121000130E04BF12020CF1080C130F04BF1201CD
:101220000CF1040C930F04BF92000CF1020CD30FCD
:1012300004BF52000CF1010C11464FF00002A0F166
:101240001F00A0EB0C00704711F0004F08BF704763
:1012500031F000413FF4D5AF0B0C06BF09044FF04D
:10126000100C4FF0000C0B0E04BF09020CF1080C1F
:101270000B0F04BF09010CF1040C8B0F04BF890094
:101280000CF1020CCB0F04BF49000CF1010CCCF1A6
:101290002003A0EB0C0022FA03F302FA0CF241EA5D
:1012A000030100F10100704720F07F4C80EA030049
:1012B00023F07F47ACEB070303F57C5300F00040BD
:1012C00003F1FF032DE980494FEA154B09B44FEABA
:1012D000144325EA0B4E24EA03480FF2042606EBDA
:1012E000132749083E785FEA320203FB0667C7F519
:1012F000000707FB06F64FEA54374FEAD64606F1D9
:10130000020607FB066CCCF1005C4FEA1C472CEA96
:10131000074C07FB06F40CFB06F504EB15464FEAF9
:10132000961634BF00204FF000404FEAD13706FB3D
:1013300007FC4FEA1C4C0CFB0BF7D21B03FB0CF712
:1013400061EB07010CFB0EF7B0EB074072EB1742A5
:101350000CFB08F734BFA2EB0742B2EB074261EB8C
:1013600017414FEA0C444FEA910706FB07FC4FEA8E
:101370001C4C0CFB0BF7B0EBC74072EB573203FB76
:101380000CF734BFA2EBC742B2EBC74261EB573157
:101390000CFB0EF7B0EBC70072EB57720CFB08F7B3
:1013A00034BFA2EBC702B2EBC70261EB5771039FD8
:1013B0004FEA816141EA921104EBCC044FEAD13744
:1013C0004FEA826206FB07FC42EA90124FEA806015
:1013D0004FEA1C4C0CFB0BF7D21B03FB0CF761EB29
:1013E00007010CFB0EF7B0EB074072EB17420CFB4A
:1013F00008F734BFA2EB0742B2EB074261EB17419B
:101400004FEA8C554FEA910704EB9C2406FB07FC3E
:101410004FEA1C4C0CFB0BF7B0EBC74072EB57329A
:1014200003FB0CF734BFA2EBC742B2EBC74261EB40
:1014300057310CFB0EF7B0EBC70072EB57720CFB89
:1014400008F734BFA2EBC702B2EBC70261EB5771DA
:1014500015EB4C254FEA816141EA92114FEA826215
:101460004FEAD13742EA901206FB07FC44F1000430
:101470004FEA80604FEA1C4C0CFB0BF7D21B03FBBE
:101480000CF761EB07010CFB0EF7B0EB074072EBBA
:1014900017420CFB08F734BFA2EB0742B2EB07423E
:1014A00061EB174115EB1C154FEA813141EA92417E
:1014B0004FEA823242EA90424FEA80304FEA0C769D
:1014C00044F1000448EA03434EEA0B484FF0000E93
:1014D000B2EB080C71EB030724BF624639464EEBB2
:1014E0000E0E4FF0000B0018524149414BEB0B0B15
:1014F000B2EB080C71EB03077BF1000B24BF6246D3
:1015000039464EEB0E0E4FF0000B00185241494188
:101510004BEB0B0BB2EB080C71EB03077BF1000BF1
:1015200024BF624639464EEB0E0E51EA020718BF41
:1015300046F0010616EB0E7655F1000254F100015B
:1015400003D5BDE88901BDE80088BDE88901BDE893
:101550000048B619524141EB0101A3F10103704764
:1015600080807F7E7D7C7B7A7978777676757473E0
:10157000727171706F6E6E6D6C6C6B6A6A6968689F
:10158000676666656464636362616160605F5F5E35
:101590005E5D5D5C5C5B5B5A5A59595858575756AB
:1015A0005655555554545353525252515150505010
:1015B0004F4F4F4E4E4D4D4D4C4C4C4B4B4B4A4A62
:1015C0004A494949484848474747474646464545A6
:1015D00045444444444343434342424242414141DF
:1015E000002B9C4630D477002BD01CB54FEA370730
:1015F00003B44FF010004FF01001BAF1000F06D005
:10160000BCF1000FDCBF40F0080040F008014FF0D3
:1016100000000FBCBDE810400BF1010BBBF1010F46
:1016200008BF5FEA170722BF12F1010211F10101A1
:101630004FF0004143F1000300F0004043EA000096
:101640007047F9D35708D0E746EA064613F1400F32
:101650004FEA16461FDD13F1200FDFBF16430A467F
:10166000002120335B42BED0C3F1200746EA064684
:1016700002FA07F74FEA164646EA0706C3F12007C3
:1016800022FA03F201FA07F721FA03F14FF00003FF
:1016900042EA0702A7E746EA020646EA06464FEA9A
:1016A000164646EA0106BCBF46EA0646360C4FF02F
:1016B00000034FF000024FF0000194E72DE9804C49
:1016C0009A46934670B491E8380007C831EA400C56
:1016D00048BF34EA430C03D5FFF7E6FDFFF780FF70
:1016E000F0BCBDE8008C2DE9804C9A46934670B45E
:1016F00091E8380007C810F0804F08BF13F0804F02
:1017000003D100F005F8FFF76BFFF0BCBDE8008CDB
:1017100020F07F4780EA030023F07F4C07EB0C03A7
:10172000A3F57C5300F00040A3F1FE0392F0000FFC
:1017300000F0B38095F0000F00F077802DE90149AB
:101740004FEA11404FEA144621EA004800FB06FC2C
:1017500024EA064708FB06F607FB08F800FB07F734
:1017600018EB06484CEB164C4FEA124B18EB0748A7
:101770004FEA15464CEB174022EA0B4E0BFB06FCDA
:1017800025EA06470EFB06F607FB0EFE0BFB07F7E6
:101790001EEB064E4CEB164C4FF000061EEB074EB0
:1017A0004CEB174B18EB0B0840F1000018EB0E0B3D
:1017B00058EB000840F100008F1A4FF000013CBFC9
:1017C000C943661B14BFB5EB040C00213CBFC943E1
:1017D000F61B4FEA17444EEA8E0E27EA04454FEAFD
:1017E0001C4704FB07622CEA074C05FB07F70CFBC0
:1017F00005F604FB0CFC16EB074642EB174216EB12
:101800000C4642EB1C421BEB060658EB0202414120
:1018100046EA9E0601D5BDE80189B619524141EB61
:101820000101A3F10103BDE801894FEA14454FEA24
:10183000114724EA054621EA074C05FB07F406FB9D
:1018400007F70CFB06F105FB0CFC11EB074144EB21
:1018500017444FEA124711EB0C4144EB1C4422EAB7
:10186000074C05FB07F206FB07F70CFB06F605FB2A
:101870000CFC16EB074642EB174216EB0C4642EB0C
:101880001C456A1854F1000148BF7047B61952410F
:1018900041EB0101A3F10103704795F0000F37D030
:1018A0004FEA11424FEA144721EA024624EA074C64
:1018B00002FB07F106FB07F70CFB06F402FB0CFC2E
:1018C00014EB074441EB17414FEA154714EB0C4466
:1018D00041EB1C4125EA074C02FB07F506FB07F725
:1018E0000CFB06F602FB0CFC16EB074645EB174516
:1018F00016EB0C4645EB1C42121951F1000148BF92
:101900007047B619524141EB0101A3F10103704741
:101910004FEA14454FEA114724EA054621EA074CED
:1019200005FB07F106FB07F70CFB06F24FF000067C
:1019300005FB0CFC12EB074241EB174112EB0C428A
:1019400051EB1C4148BF7047921841EB0101A3F1D4
:101950000103704700BFFEE700200149088070477F
:101960003E0000202DE9FF4F07460D461C46AA46C3
:101970002046E21704EB5272D2102146E31704EB23
:101980005373DB10A4EBC3030BB1012300E000236E
:101990001A44624302F0FF0B002637E0102C08D1F6
:1019A000029800EBC0001B4901EB800010F8068094
:1019B00001E0BDE8FF8F4FF0000921E008F0800052
:1019C00030B1154802882946384600F075FF05E019
:1019D000124802882946384600F06EFF4FEA4860F8
:1019E0004FEA1068681CC5B2A5EB0A00A04203D1FB
:1019F0005546781CC7B206E009F1010000F0FF0966
:101A0000B9F1080FDADB00BF701CC6B25E45C5DB5A
:101A100000BFCEE7947600083A0000203C0000208A
:101A20002DE9FF4F07460D461C46AA462046E21701
:101A300004EB5272D2102146E31704EB5373DB1010
:101A4000A4EBC3030BB1012300E000231A4462435B
:101A500002F0FF0B002637E0102C08D1029800EBB3
:101A6000C0001B4901EB800010F8068001E0BDE8D2
:101A7000FF8F4FF0000921E008F0800030B11548D9
:101A800002882946384600F017FF05E01248028810
:101A90002946384600F010FF4FEA48604FEA1068C8
:101AA000681CC5B2A5EB0A00A04203D15546781CBC
:101AB000C7B206E009F1010000F0FF09B9F1080F13
:101AC000DADB00BF701CC6B25E45C5DB00BFCEE7E7
:101AD000D47800083A0000203C0000202DE9FF4F98
:101AE00007460D461C46AA462046E21704EB5272F2
:101AF000D2102146E31704EB5373DB10A4EBC303AE
:101B00000BB1012300E000231A44624302F0FF0BF3
:101B1000002637E0102C08D1029800EBC0001B49CA
:101B200001EB800010F8068001E0BDE8FF8F4FF068
:101B3000000921E008F0800030B1154802882946EC
:101B4000384600F0B9FE05E01248028829463846BA
:101B500000F0B2FE4FEA48604FEA1068681CC5B258
:101B6000A5EB0A00A04203D15546781CC7B206E097
:101B700009F1010000F0FF09B9F1080FDADB00BF3D
:101B8000701CC6B25E45C5DB00BFCEE7147B000803
:101B90003A0000203C0000202DE9FF4F07460D468B
:101BA0001C46AA462046E21704EB5272D210214688
:101BB000E31704EB5373DB10A4EBC3030BB1012356
:101BC00000E000231A44624302F0FF0B002637E0D6
:101BD000102C08D1029800EBC0001B4901EB8000DB
:101BE00010F8068001E0BDE8FF8F4FF0000921E00A
:101BF00008F0800030B1154802882946384600F0C8
:101C00005BFE05E0124802882946384600F054FE83
:101C10004FEA48604FEA1068681CC5B2A5EB0A009D
:101C2000A04203D15546781CC7B206E009F1010075
:101C300000F0FF09B9F1080FDADB00BF701CC6B273
:101C40005E45C5DB00BFCEE7547D00083A000020AA
:101C50003C00002010B500241548406820F4704076
:101C6000134948600846406840F40040486004E07A
:101C7000601CC4B2012004F0E3FC0E48006808B107
:101C8000642CF5DB642C01DB012010BD002404E092
:101C9000601CC4B2012004F0D3FC0648006808B9F7
:101CA000642CF5DB642C01DB0120EEE70020ECE77F
:101CB000002001402C01244208B50121080203F054
:101CC0005FFD4FF40060ADF8000010208DF80300B8
:101CD00003208DF802006946064800F04EFB4FF4E1
:101CE0000061044800F0DFFB00F068F8FFF7B2FF86
:101CF00008BD00000020014010B5002404E0601C75
:101D0000C4B2012004F09CFC0D48006808B1642CAA
:101D1000F5DB002404E0601CC4B2012004F090FC58
:101D20000748006808B9642CF5DB282004F088FC1B
:101D30000348006808B1012010BD0020FCE7000046
:101D40002C01244270B50024002506E06006040E34
:101D5000FFF7D2FF0443681CC5B2082DF6DB20460E
:101D600070BD7CB505460E4600F028F8FFF772FFFF
:101D7000F8B9002405E0FFF7E5FF0DF80400601C4A
:101D8000C4B2052CF7DB9DF800009DF80110084453
:101D90009DF8021008449DF8031008449DF80410B3
:101DA000884208D19DF8000030709DF8020028702C
:101DB00001E001207CBD0020FCE7000010B50C48CC
:101DC000406820F470400A4948600846406840F482
:101DD00040504860002007490860142004F00AFCC5
:101DE00001200549C1F8AC011E2004F029FC10BDFA
:101DF00000200140AC0124420000244210B500F054
:101E000043F94B48007800114FF47A714843484930
:101E1000097801F00F0101EBC10202EB011100EBA7
:101E2000810043494978091101EB810100EB410030
:101E30003F49497801F00F0108443E4908803C4A77
:101E40009078C21700EB12721211A0EB0212384BFD
:101E50009978CB1701EB13731B1103EB830302EB90
:101E60004302344B5A80324AD078C21700EB1272C8
:101E70001211A0EB02122E4BD978CB1701EB137382
:101E80001B1103EB830302EB43022A4B9A80284A7F
:101E90001079C21700EB12721211A0EB0212244B40
:101EA0001979CB1701EB13731B1103EB830302EBBF
:101EB0004302204B9A711E4A5079C21700EB1272EE
:101EC0001211A0EB02121A4B5979CB1701EB1373C5
:101ED0001B1103EB830302EB4302164BDA71144A26
:101EE0009079C21700EB12721211A0EB0212104B84
:101EF0009979CB1701EB13731B1103EB830302EBEF
:101F000043020C4B1A720A4AD079C21700EB1272C4
:101F10001211A0EB0212064BD979CB1701EB137308
:101F20001B1103EB830302EB4302024B5A7210BDF9
:101F300030000020C800002008B50121042003F073
:101F40001FFC4020ADF8000004208DF80300694616
:101F5000014800F012FA08BD0008014008B501214F
:101F6000042003F00DFC4020ADF8000003208DF8A4
:101F7000020010208DF803006946044800F0FDF9C6
:101F80004021024800F08DFA08BD00000008014021
:101F900008B50121042003F0F3FB2020ADF8000078
:101FA00003208DF8020010208DF8030069460C48CC
:101FB00000F0E3F920210A4800F073FA8020ADF820
:101FC000000003208DF8020010208DF80300694600
:101FD000034800F0D2F98021014800F062FA08BD00
:101FE0000008014070B504460020254908602549D5
:101FF000C1F89C01012022490860FFF7AFFF44F0BF
:102000000104002616E004F0010020B101201C4963
:10201000091D086003E000201949091D086001201E
:1020200017490831086000201649C1F89C01641066
:10203000701CC6B2082EE6DBFFF77EFF002613E019
:102040006D100F487C38006810B145F0800501E044
:1020500005F07F0501200A49083108600020094980
:10206000C1F89C01701CC6B2082EE9DB01200449AE
:102070000831086000200349C1F89401284670BD6A
:10208000940121420000214210B58C20FFF7AAFFE5
:10209000104948708820FFF7A5FF0E4988708620F8
:1020A000FFF7A0FF0B49C8708420FFF79BFF094989
:1020B00008718220FFF796FF064948718020FFF7DC
:1020C00091FF044988718A20FFF78CFF0149C8718C
:1020D00010BD00003000002070B504460E46002000
:1020E000254908602549C1F89C0101202249086062
:1020F000FFF734FF04F0FE04002516E004F00100B1
:1021000020B101201C49091D086003E000201A4984
:10211000091D08600120184908310860002017498E
:10212000C1F89C016410681CC5B2082DE6DB0025CF
:1021300016E006F0010020B101200F49091D0860DA
:1021400003E000200C49091D086001200A490831FC
:10215000086000200949C1F89C017610681CC5B2CE
:10216000082DE6DB012004490831086000200349FE
:10217000C1F8940170BD0000940121420000214289
:1021800070B5044600218E20FFF7A6FF61788C20F1
:10219000FFF7A2FFA0780A2190FBF1F201FB1201E8
:1021A0000A2290FBF2F001EB0010C5B2294688200C
:1021B000FFF792FFE0780A2190FBF1F201FB120198
:1021C0000A2290FBF2F001EB0010C5B229468620EE
:1021D000FFF782FF20790A2190FBF1F201FB120147
:1021E0000A2290FBF2F001EB0010C5B229468420D0
:1021F000FFF772FF60790A2190FBF1F201FB1201F7
:102200000A2290FBF2F001EB0010C5B229468220B1
:10221000FFF762FFA0790A2190FBF1F201FB1201A6
:102220000A2290FBF2F001EB0010C5B22946802093
:10223000FFF752FFE0790A2190FBF1F201FB120156
:102240000A2290FBF2F001EB0010C5B229468A2069
:10225000FFF742FF80218E20FFF73EFF70BD7047E1
:1022600051B18200A2F1C042126842F00103820023
:10227000A2F1C042136009E08200A2F1C0421268DC
:10228000034B1A408300A3F1C0431A60704700005B
:10229000FEFF0F00D0E901121143C2681143026929
:1022A00011434269114382691143C2691143026AB1
:1022B0001143426A1143826A1143C26A1143026B9D
:1022C000114302689200A2F1C0421160816808299E
:1022D0000BD101688900A1F1C041096841F04002B9
:1022E00001688900A1F1C0410A60416B0968426B35
:1022F000526841EA0211426B926841EA0221426B44
:10230000928941EA0241426B128A41EA0251426BD0
:10231000127D41EA0261426B926911430268521CCC
:102320009200A2F1C0421160C16AB1F5804F1BD189
:10233000816B0968826B526841EA0211826B926874
:1023400041EA0221826B128A41EA0251826B127DBC
:1023500041EA0261826B9269114302689200A2F124
:10236000C042C2F8041107E06FF0704201688900B2
:10237000A1F1C041C1F8042170472DE9F0410246A6
:1023800000250026002000230024002791F803C028
:102390000CF00F0591F803C00CF0100CBCF1000F0D
:1023A00003D091F802C04CEA050591F800C0BCF1D9
:1023B000000F31D0146800202BE04FF0010C0CFA14
:1023C00000F3B1F800C00CEA03069E4220D183005E
:1023D0004FF00F0C0CFA03F7BC4305FA03FC4CEA70
:1023E000040491F803C0BCF1280F06D14FF0010C92
:1023F0000CFA00FCC2F814C00AE091F803C0BCF16A
:10240000480F05D14FF0010C0CFA00FCC2F810C0C7
:10241000401C0828D1D31460B1F800C0BCF1FF0FF4
:1024200034DD546800202EE000F1080C4FF0010864
:1024300008FA0CF3B1F800C00CEA03069E4221D161
:1024400083004FF00F0C0CFA03F7BC4305FA03FCB2
:102450004CEA040491F803C0BCF1280F05D100F147
:10246000080C08FA0CF8C2F8148091F803C0BCF10B
:10247000480F07D100F1080C4FF0010808FA0CF8DA
:10248000C2F81080401C0828CED35460BDE8F0810B
:102490000246002093680B400BB1012000E00020B1
:1024A0007047416170470161704700BFFEE700005F
:1024B00008B50121482003F063F92020ADF80000A1
:1024C00010208DF8030003208DF8020069460948AA
:1024D000FFF753FF20210748FFF7E5FF2020ADF865
:1024E000000069460448FFF748FF20210248FFF733
:1024F000DAFF08BD000C01400018014010B50024AF
:102500002848006802284BDD002026490860102179
:102510002548FFF7BDFF2549087108212248FFF72C
:10252000B7FF2249087304211F48FFF7B1FF1F4975
:10253000087500BF32E01D4850F8340020B1012872
:102540000CD0022828D118E0184800EBC40000790C
:1025500018B90120154941F834001DE0134800EB7B
:10256000C400007920B90220104941F8340003E08A
:1025700000200E4941F834000EE00C4800EBC40086
:102580000079012807D1094901EBC40148710020F5
:10259000064941F8340000BF00BF641C032CCADBAD
:1025A00010BD00000800002000180140A00000201D
:1025B00008B50121402003F0E3F81020ADF8000039
:1025C00048208DF8030069460B48FFF7D6FE082027
:1025D000ADF8000048208DF8030069460648FFF773
:1025E000CCFE0420ADF8000048208DF803006946B9
:1025F0000148FFF7C2FE08BD0018014070B504464F
:10260000002609480588408845430021084602F015
:1026100067FE03F013F800BF02E004480480761C54
:10262000AE42FAD370BD0000D20000200008006C5A
:1026300008B50020102302467D2100905A20FFF7A4
:1026400091F90020102301227D2100908720FFF7BF
:1026500089F90020102302227D210090B920FFF784
:1026600081F9002010230322962100906220FFF7B9
:1026700079F9002010230422962100907220FFF7A0
:1026800071F9002010230246D02100903820FFF776
:10269000C7F9002010230122D02100905620FFF717
:1026A000BFF9002010230222EE2100903820FFF70E
:1026B000B7F9002010230322EE2100905620FFF7E7
:1026C000AFF9002018233A22B4210090522002F0E2
:1026D00097FE002018233A22B4210090882002F0AF
:1026E0008FFE002010230722D22100909220FFF7B6
:1026F00053FA002018232522EB210090922002F0AB
:102700007FFE08BD10B5044649488471002C45D1B0
:10271000F020474908804FF4A07048800846808820
:1027200045F21051884210D14FF430504049088191
:102730004FF4285048814FF42C5088814FF4F070AA
:1027400008804FF4487048801AE03948808841F684
:10275000631188420DD12C20354908812B204881F6
:102760002A2088814FF4F07008804FF44870488028
:1027700006E02C202E4908812A2048812B208881C0
:102780002B48808845F2103188424CD14FF4A0701C
:10279000274908804FF4F070488044E04FF4A0705F
:1027A00023490880F02048800846808845F210516F
:1027B000884210D14FF430501D4908814FF4285001
:1027C00048814FF42C5088814FF4487008804FF4B2
:1027D000F07048801AE01648808841F663118842FC
:1027E0000DD12C20124908812A2048812B20888174
:1027F0004FF4487008804FF4F070488006E02C20B9
:102800000B4908812A2048812B208881084880882C
:1028100045F21031884206D14FF4F0700449088027
:102820004FF4A0704880002002F040FC10BD000072
:10283000D20000202DE9F84F04460D4690469946F7
:1028400026462F460A98009000BF2CE0009890F88A
:1028500000A04FF0000B1FE00AF0800030B11448D8
:1028600002883946304600F027F805E01148028812
:102870003946304600F020F84FEA4A604FEA106AC5
:10288000701C86B2464503DB2646781C87B206E0FC
:102890000BF1010000F0FF0BBBF1080FDCDB00BF08
:1028A0000098401C00904F45D0DBBDE8F88F000039
:1028B0003A0000203C00002010B503460C46384882
:1028C000808845F21051884220D13549488902F06C
:1028D000AFFE181202F0A6FE31494989491C88B2A0
:1028E00002F0A6FED8B202F09DFE2D49888902F0C2
:1028F0009FFE201202F096FE29498989491C88B260
:1029000002F096FEE0B202F08DFE42E0244880889C
:1029100041F66311884228D12148807920B92048A6
:102920000088401EC01A83B21D49488902F080FE0B
:10293000181202F077FED8B202F074FE181202F0FC
:1029400071FED8B202F06EFE1549888902F070FE61
:10295000201202F067FEE0B202F064FE201202F0E4
:1029600061FEE0B202F05EFE13E00D49488902F01C
:102970005FFE181202F056FED8B202F053FE08496C
:10298000888902F055FE201202F04CFEE0B202F0FF
:1029900049FE0348008903490880881C028010BD55
:1029A000D2000020FE07006C00B59FB00121080294
:1029B00002F0B6FE01214FF4B47002F0E1FE0120F6
:1029C000ADF8780010208DF87B0003208DF87A0098
:1029D0001EA9FE48FFF7D1FC4CF23370ADF8780029
:1029E00018208DF87B0003208DF87A001EA9F84886
:1029F000FFF7C3FC4FF68070ADF8780018208DF813
:102A00007B0003208DF87A001EA9F248FFF7B5FC81
:102A100041F20100ADF8780018208DF87B0003200A
:102A20008DF87A001EA9EC48FFF7A7FC012008905A
:102A3000002009900F200A9000200B900C900D9020
:102A40000E900190029003200390002004900590C6
:102A50000690079006200F900020109011901020F3
:102A600012900020139015901490169017904FF428
:102A700080501890002019904FF480401A90002048
:102A80001B9008A81C9001A81D900FA8FFF702FC3E
:102A900001210620FFF7E4FB322003F0ABFDD32039
:102AA00002F0C6FD02F0CEFACC49888002F0CAFAE4
:102AB000CA49888002F0C6FAC849888008468088DA
:102AC0004FF6FF7101EA0020C449888002F0BAFA8B
:102AD000C24989880843C14988800846808849F2EC
:102AE000413188427DD0042002F0A2FD02F0AAFA12
:102AF000BA49888002F0A6FAB849888002F0A2FAA2
:102B0000B6498880084680884FF6FF7101EA0020A8
:102B1000B249888002F096FAB04989880843AF49E3
:102B200088800846808848F25251884203D147F293
:102B30008970AA498880A948808847F289718842AB
:102B4000D0D0D42002F074FD02F07CFAA349888032
:102B500002F078FAA149888002F074FA9F498880CF
:102B6000084680884FF6FF7101EA00209B49888063
:102B700002F068FA9949898808439849888008468C
:102B8000808845F21031884262D055214FF4704060
:102B900002F05EFDAA214FF2010002F059FD522120
:102BA0004FF2020002F054FD08214FF2030002F040
:102BB0004FFD01214FF2040002F04AFD4FF4454061
:102BC00002F036FD02F03EFA84498880084680888B
:102BD0004FF6FF7101EA0020804988804CF20150D5
:102BE00000E035E002F024FD02F02CFA7B498988F0
:102BF00008437A498880052003F0FCFC77488088E8
:102C000045F21051884223D0A12002F011FD02F0BC
:102C100019FA7249888002F015FA704988800846CE
:102C200080884FF6FF7101EA00206C49888002F02D
:102C300009FA6A4989880843684988800846808873
:102C400045F26171884203D141F66310634988807F
:102C50006248818862A0FDF743FB6048808849F2A2
:102C6000413188427ED1CF2002F0E2FC002002F008
:102C7000D9FCC12002F0D6FC302002F0D3FCED20BC
:102C800002F0D6FC642002F0CDFC032002F0CAFC66
:102C9000122002F0C7FC812002F0C4FCE82002F000
:102CA000C7FC852002F0BEFC102002F0BBFC7A209D
:102CB00002F0B8FCCB2002F0BBFC392002F0B2FCE1
:102CC0002C2002F0AFFC002002F0ACFC342002F01B
:102CD000A9FC022002F0A6FCF72002F0A9FC2020AB
:102CE00002F0A0FCEA2002F0A3FC002002F09AFC13
:102CF000002002F097FCC02002F09AFC1B2002F09A
:102D000091FCC12002F094FC012002F08BFCC52054
:102D100002F08EFC302002F085FC302002F082FCB4
:102D2000C72002F085FCB72002F07CFC362002F0C0
:102D30007FFC482002F076FC3A2002F079FC552016
:102D400002F070FCB12002F073FC002002F06AFC7B
:102D50001A2002F067FCB62002F06AFC0A2002F09A
:102D600061FC00E0ABE0A22002F05CFCF22002F08B
:102D70005FFC002002F056FC262002F059FC0120E6
:102D800002F050FCE02002F053FC0F2002F04AFC5D
:102D90002A2002F047FC282002F044FC082002F020
:102DA00041FC0E2002F03EFC082002F03BFC5420C7
:102DB00002F038FCA92002F035FC432002F032FC7E
:102DC0000A2002F02FFC0F2012E00000000C01404E
:102DD000001401400018014000200140D2000020F2
:102DE000204C43442049443A25780D0A0000000055
:102DF00002F018FC002002F015FC002002F012FC8A
:102E0000002002F00FFC002002F00CFCE12002F098
:102E10000FFC002002F006FC152002F003FC172036
:102E200002F000FC072002F0FDFB112002F0FAFB8B
:102E3000062002F0F7FB2B2002F0F4FB562002F0F4
:102E4000F1FB3C2002F0EEFB052002F0EBFB102032
:102E500002F0E8FB0F2002F0E5FB3F2002F0E2FB6E
:102E60003F2002F0DFFB0F2002F0DCFB2B2002F002
:102E7000DFFB002002F0D6FB002002F0D3FB012094
:102E800002F0D0FB3F2002F0CDFB2A2002F0D0FB65
:102E9000002002F0C7FB002002F0C4FB002002F07B
:102EA000C1FBEF2002F0BEFB112002F0C1FB782035
:102EB00003F0A0FB292002F0BBFB02F0A6B8FE48FD
:102EC000808847F2897188427ED1112002F0B0FBE0
:102ED000782003F08FFB362002F0AAFB002002F0DE
:102EE000A1FB3A2002F0A4FB052002F09BFBB220DC
:102EF00002F09EFB0C2002F095FB0C2002F092FBEE
:102F0000002002F08FFB332002F08CFB332002F014
:102F100089FBB72002F08CFB352002F083FBBB203D
:102F200002F086FB322002F07DFBC02002F080FB25
:102F30000C2002F077FBC22002F07AFB012002F0A5
:102F400071FBC32002F074FB102002F06BFBC42065
:102F500002F06EFB202002F065FBC62002F068FB49
:102F60000F2002F05FFBD02002F062FBA42002F0F1
:102F700059FBA12002F056FBE02002F059FBD020C3
:102F800002F050FB002002F04DFB022002F04AFB51
:102F9000072002F047FB0A2002F044FB282002F041
:102FA00041FB322002F03EFB442002F03BFB42207A
:102FB00002F038FB062002F035FB0E2002F032FB57
:102FC000122002F02FFB00E054E0142002F02AFB54
:102FD000172002F027FBE12002F02AFBD02002F0AC
:102FE00021FB002002F01EFB022002F01BFB072049
:102FF00002F018FB0A2002F015FB282002F012FB59
:10300000312002F00FFB542002F00CFB472002F0AD
:1030100009FB0E2002F006FB1C2002F003FB172028
:1030200002F000FB1B2002F0FDFA1E2002F0FAFA6B
:103030002A2002F0FDFA002002F0F4FA002002F04B
:10304000F1FA002002F0EEFAEF2002F0EBFA2B206A
:1030500002F0EEFA002002F0E5FA002002F0E2FAB7
:10306000012002F0DFFA3F2002F0DCFA292002F012
:10307000DFFA22E79048808845F21031884240F01C
:103080007C87ED2002F0D4FA012002F0CBFAFE207A
:1030900002F0C8FAEE2002F0CBFADE2002F0C2FA0B
:1030A000212002F0BFFAF12002F0C2FA012002F062
:1030B000B9FADF2002F0BCFA102002F0B3FAC42003
:1030C00002F0B6FA8F2002F0ADFAC62002F0B0FA94
:1030D000002002F0A7FAE22002F0A4FAE22002F0B7
:1030E000A1FAE22002F09EFABF2002F0A1FAAA2083
:1030F00002F098FAB02002F09BFA0D2002F092FA4A
:10310000002002F08FFA0D2002F08CFA002002F06D
:1031100089FA112002F086FA002002F083FA1920C1
:1031200002F080FA002002F07DFA212002F07AFA03
:10313000002002F077FA2D2002F074FA002002F04D
:1031400071FA3D2002F06EFA002002F06BFA5D2069
:1031500002F068FA002002F065FA5D2002F062FADF
:10316000002002F05FFAB12002F062FA802002F043
:1031700059FA002002F056FA8B2002F053FA002090
:1031800002F050FA962002F04DFA002002F04AFABE
:10319000B22002F04DFA002002F044FA002002F0C2
:1031A00041FA022002F03EFA002002F03BFA03202E
:1031B00002F038FA002002F035FAB32002F038FAB3
:1031C000002002F02FFA002002F02CFA002002F07A
:1031D00029FA002002F026FA002002F023FA00204B
:1031E00002F020FA002002F01DFA002002F01AFA84
:1031F000002002F017FA002002F014FA002002F07A
:1032000011FA002002F00EFA002002F00BFA002062
:1032100002F008FA002002F005FA002002F002FA9B
:10322000002002F0FFF9002002F0FCF9002002F07B
:10323000F9F9002002F0F6F9002002F0F3F900207D
:1032400002F0F0F9002002F0EDF9002002F0EAF9B6
:10325000B42002F0EDF98B2002F0E4F9002002F036
:10326000E1F9962002F0DEF9002002F0DBF9A1205E
:1032700002F0D8F9002002F0D5F9B52002F0D8F913
:10328000022002F0CFF9002002F0CCF9032002F076
:10329000C9F9002002F0C6F9042002F0C3F90020A9
:1032A00002F0C0F9B62002F0C3F9002002F0BAF92A
:1032B000002002F0B7F901E0D2000020B72002F0B0
:1032C000B7F9002002F0AEF9002002F0ABF93F2080
:1032D00002F0A8F9002002F0A5F95E2002F0A2F9A0
:1032E000002002F09FF9642002F09CF9002002F017
:1032F00099F98C2002F096F9002002F093F9AC20A5
:1033000002F090F9002002F08DF9DC2002F08AF939
:10331000002002F087F9702002F084F9002002F00A
:1033200081F9902002F07EF9002002F07BF9EB2079
:1033300002F078F9002002F075F9DC2002F072F951
:10334000002002F06FF9B82002F072F9002002F0BC
:1033500069F9002002F066F9002002F063F900200C
:1033600002F060F9002002F05DF9002002F05AF945
:10337000002002F057F9002002F054F9BA2002F0C0
:1033800057F9242002F04EF9002002F04BF90020FA
:1033900002F048F9002002F045F9C12002F048F996
:1033A000202002F03FF9002002F03CF9542002F006
:1033B00039F9002002F036F9FF2002F033F900203D
:1033C00002F030F9C22002F033F90A2002F02AF9A3
:1033D000002002F027F9042002F024F9002002F076
:1033E00021F9C32002F024F93C2002F01BF900204F
:1033F00002F018F93A2002F015F9002002F012F953
:10340000392002F00FF9002002F00CF9372002F009
:1034100009F9002002F006F93C2002F003F900202F
:1034200002F000F9362002F0FDF8002002F0FAF870
:10343000322002F0F7F8002002F0F4F82F2002F01A
:10344000F1F8002002F0EEF82C2002F0EBF800205A
:1034500002F0E8F8292002F0E5F8002002F0E2F896
:10346000262002F0DFF8002002F0DCF8242002F031
:10347000D9F8002002F0D6F8242002F0D3F800207A
:1034800002F0D0F8232002F0CDF8002002F0CAF8B4
:103490003C2002F0C7F8002002F0C4F8362002F009
:1034A000C1F8002002F0BEF8322002F0BBF8002084
:1034B00002F0B8F82F2002F0B5F8002002F0B2F8C0
:1034C0002C2002F0AFF8002002F0ACF8292002F026
:1034D000A9F8002002F0A6F8262002F0A3F80020A8
:1034E00002F0A0F8242002F09DF8002002F09AF8E3
:1034F000242002F097F8002002F094F8232002F034
:1035000091F8002002F08EF8C42002F091F86220B9
:1035100002F088F8002002F085F8052002F082F819
:10352000002002F07FF8842002F07CF8002002F0F6
:1035300079F8F02002F076F8002002F073F81820F5
:1035400002F070F8002002F06DF8A42002F06AF892
:10355000002002F067F8182002F064F8002002F062
:1035600061F8502002F05EF8002002F05BF80C20B9
:1035700002F058F8002002F055F8172002F052F837
:10358000002002F04FF8952002F04CF8002002F0E5
:1035900049F8F32002F046F8002002F043F8E62054
:1035A00002F040F8002002F03DF8C52002F040F89B
:1035B000322002F037F8002002F034F8442002F004
:1035C00031F8002002F02EF8652002F02BF80020E0
:1035D00002F028F8762002F025F8002002F022F808
:1035E000882002F01FF8002002F01CF8C62002F02C
:1035F0001FF8202002F016F8002002F013F8172020
:1036000002F010F8002002F00DF8012002F00AF894
:10361000002002F007F8C72002F00AF8002002F0AC
:1036200001F8002001F0FEFF002001F0FBFF002068
:1036300001F0F8FFC82001F0FBFF002001F0F2FFCD
:10364000002001F0EFFF002001F0ECFF002001F06E
:10365000E9FFC92001F0ECFF002001F0E3FF0020AA
:1036600001F0E0FF002001F0DDFF002001F0DAFFB3
:10367000002001F0D7FF002001F0D4FF002001F06E
:10368000D1FF002001F0CEFF002001F0CBFF002091
:1036900001F0C8FF002001F0C5FF002001F0C2FFCB
:1036A000002001F0BFFF002001F0BCFF002001F06E
:1036B000B9FF002001F0B6FFE02001F0B9FF1620AD
:1036C00001F0B0FF002001F0ADFF1C2001F0AAFFC7
:1036D000002001F0A7FF212001F0A4FF002001F04D
:1036E000A1FF362001F09EFF002001F09BFF462045
:1036F00001F098FF002001F095FF522001F092FFA9
:10370000002001F08FFF642001F08CFF002001F009
:1037100089FF7A2001F086FF002001F083FF8B20D3
:1037200001F080FF002001F07DFF992001F07AFF79
:10373000002001F077FFA82001F074FF002001F0C5
:1037400071FFB92001F06EFF002001F06BFFC42073
:1037500001F068FF002001F065FFCA2001F062FF60
:10376000002001F05FFFD22001F05CFF002001F09B
:1037700059FFD92001F056FF002001F053FFE0204F
:1037800001F050FF002001F04DFFF32001F04AFF4F
:10379000002001F047FFE12001F04AFF162001F070
:1037A00041FF002001F03EFF1C2001F03BFF002004
:1037B00001F038FF222001F035FF002001F032FF38
:1037C000362001F02FFF002001F02CFF452001F0F2
:1037D00029FF002001F026FF522001F023FF0020E6
:1037E00001F020FF642001F01DFF002001F01AFF0E
:1037F0007A2001F017FF002001F014FF8B2001F068
:1038000011FF002001F00EFF992001F00BFF0020B6
:1038100001F008FFA82001F005FF002001F002FFE1
:10382000B92001F0FFFE002001F0FCFEC42001F0F1
:10383000F9FE002001F0F6FECA2001F0F3FE0020A0
:1038400001F0F0FED22001F0EDFE002001F0EAFED2
:10385000D82001F0E7FE002001F0E4FEE02001F0B6
:10386000E1FE002001F0DEFEF32001F0DBFE00208F
:1038700001F0D8FEE22001F0DBFE052001F0D2FECF
:10388000002001F0CFFE0B2001F0CCFE002001F063
:10389000C9FE1B2001F0C6FE002001F0C3FE34204B
:1038A00001F0C0FE002001F0BDFE442001F0BAFE90
:1038B000002001F0B7FE4F2001F0B4FE002001F01F
:1038C000B1FE612001F0AEFE002001F0ABFE7920D8
:1038D00001F0A8FE002001F0A5FE882001F0A2FE64
:1038E000002001F09FFE972001F09CFE002001F0D7
:1038F00099FEA62001F096FE002001F093FEB7206D
:1039000001F090FE002001F08DFEC22001F08AFE41
:10391000002001F087FEC72001F084FE002001F0A6
:1039200081FED12001F07EFE002001F07BFED6203A
:1039300001F078FE002001F075FEDD2001F072FE3E
:10394000002001F06FFEF32001F06CFE002001F07A
:1039500069FEE32001F06CFE052001F063FE00200B
:1039600001F060FE0A2001F05DFE002001F05AFE29
:103970001C2001F057FE002001F054FE332001F01E
:1039800051FE002001F04EFE442001F04BFE0020CD
:1039900001F048FE502001F045FE002001F042FEFB
:1039A000622001F03FFE002001F03CFE782001F093
:1039B00039FE002001F036FE882001F033FE0020A1
:1039C00001F030FE972001F02DFE002001F02AFECC
:1039D000A62001F027FE002001F024FEB72001F010
:1039E00021FE002001F01EFEC22001F01BFE00207F
:1039F00001F018FEC72001F015FE002001F012FEB4
:103A0000D12001F00FFE002001F00CFED52001F0C6
:103A100009FE002001F006FEDD2001F003FE00207B
:103A200001F000FEF32001F0FDFD002001F0FAFDA1
:103A3000E42001F0FDFD012001F0F4FD002001F083
:103A4000F1FD012001F0EEFD002001F0EBFD022070
:103A500001F0E8FD002001F0E5FD2A2001F0E2FD83
:103A6000002001F0DFFD3C2001F0DCFD002001F032
:103A7000D9FD4B2001F0D6FD002001F0D3FD5D20E3
:103A800001F0D0FD002001F0CDFD742001F0CAFD51
:103A9000002001F0C7FD842001F0C4FD002001F0EA
:103AA000C1FD932001F0BEFD002001F0BBFDA2206E
:103AB00001F0B8FD002001F0B5FDB32001F0B2FD2A
:103AC000002001F0AFFDBE2001F0ACFD002001F0B0
:103AD000A9FDC42001F0A6FD002001F0A3FDCD202A
:103AE00001F0A0FD002001F09DFDD32001F09AFD22
:103AF000002001F097FDDD2001F094FD002001F091
:103B000091FDF32001F08EFD002001F08BFDE520FA
:103B100001F08EFD002001F085FD002001F082FD06
:103B2000002001F07FFD002001F07CFD022001F06B
:103B300079FD002001F076FD292001F073FD0020C1
:103B400001F070FD3C2001F06DFD002001F06AFDE8
:103B50004B2001F067FD002001F064FD5D2001F0C5
:103B600061FD002001F05EFD742001F05BFD00208E
:103B700001F058FD842001F055FD002001F052FDB8
:103B8000932001F04FFD002001F04CFDA22001F038
:103B900049FD002001F046FDB32001F043FD002067
:103BA00001F040FDBE2001F03DFD002001F03AFD96
:103BB000C42001F037FD002001F034FDCD2001F0DC
:103BC00031FD002001F02EFDD32001F02BFD00205F
:103BD00001F028FDDC2001F025FD002001F022FD90
:103BE000F32001F01FFD002001F01CFDE62001F094
:103BF0001FFD112001F016FD002001F013FD3420FF
:103C000001F010FD002001F00DFD562001F00AFD2D
:103C1000002001F007FD762001F004FD002001F0F6
:103C200001FD772001F0FEFC002001F0FBFC662086
:103C300001F0F8FC002001F0F5FC882001F0F2FC16
:103C4000002001F0EFFC992001F0ECFC002001F0D5
:103C5000E9FCBB2001F0E6FC002001F0E3FC992028
:103C600001F0E0FC002001F0DDFC662001F0DAFC50
:103C7000002001F0D7FC552001F0D4FC002001F019
:103C8000D1FC552001F0CEFC002001F0CBFC4520FA
:103C900001F0C8FC002001F0C5FC432001F0C2FC8B
:103CA000002001F0BFFC442001F0BCFC002001F02A
:103CB000B9FCE72001F0BCFC322001F0B3FC00208D
:103CC00001F0B0FC552001F0ADFC002001F0AAFC91
:103CD000762001F0A7FC002001F0A4FC662001F092
:103CE000A1FC002001F09EFC672001F09BFC00205D
:103CF00001F098FC672001F095FC002001F092FC97
:103D0000872001F08FFC002001F08CFC992001F04D
:103D100089FC002001F086FCBB2001F083FC002020
:103D200001F080FC992001F07DFC002001F07AFC7C
:103D3000772001F077FC002001F074FC442001F0B2
:103D400071FC002001F06EFC562001F06BFC00209D
:103D500001F068FC232001F065FC002001F062FC0A
:103D6000332001F05FFC002001F05CFC452001F0F5
:103D700059FC002001F056FCE82001F059FC00201D
:103D800001F050FC002001F04DFC992001F04AFCAC
:103D9000002001F047FC872001F044FC002001F0E6
:103DA00041FC882001F03EFC002001F03BFC772024
:103DB00001F038FC002001F035FC662001F032FCF7
:103DC000002001F02FFC882001F02CFC002001F0E5
:103DD00029FCAA2001F026FC002001F023FCBB20D6
:103DE00001F020FC002001F01DFC992001F01AFCDC
:103DF000002001F017FC662001F014FC002001F007
:103E000011FC552001F00EFC002001F00BFC5520A8
:103E100001F008FC002001F005FC442001F002FC48
:103E2000002001F0FFFB442001F0FCFB002001F02A
:103E3000F9FB552001F0F6FB002001F0F3FBE9202F
:103E400001F0F6FBAA2001F0EDFB002001F0EAFBF7
:103E5000002001F0E7FB002001F0E4FB002001F06E
:103E6000E7FBAA2001F0DEFBCF2001F0E1FB002000
:103E700001F0D8FB002001F0D5FB002001F0D2FBBF
:103E8000002001F0CFFB002001F0CCFB002001F06E
:103E9000C9FB002001F0C6FB002001F0C3FB00209D
:103EA00001F0C0FB002001F0BDFB002001F0BAFBD7
:103EB000002001F0B7FB002001F0B4FB002001F06E
:103EC000B1FB002001F0AEFB002001F0ABFB0020B5
:103ED00001F0A8FBF02001F0ABFB002001F0A2FBF9
:103EE000502001F09FFB002001F09CFB002001F01E
:103EF00099FB002001F096FBF32001F099FB0020D4
:103F000001F090FBF92001F093FB062001F08AFB01
:103F1000102001F087FB292001F084FB002001F034
:103F200081FB3A2001F084FB552001F07BFB11203E
:103F300001F07EFB642002F05DFB292001F078FB9C
:103F4000352001F075FB002001F06CFB512001F0E1
:103F50006FFBFF2001F066FB532001F069FB2C2072
:103F600001F060FB552001F063FB822001F05AFB59
:103F70002C2001F05DFB01F048B8FE48808845F236
:103F8000105188427ED155214FF4704001F060FB02
:103F9000AA214FF2010001F05BFB52214FF2020017
:103FA00001F056FB08214FF2030001F051FB012103
:103FB0004FF2040001F04CFB0D214FF4304001F0B2
:103FC00047FB0D214BF2010001F042FB0D214BF2AA
:103FD000020001F03DFB34214FF4364001F038FB84
:103FE00034214BF2016001F033FB34214BF20260CB
:103FF00001F02EFB0D214FF4314001F029FB0D2182
:104000004BF2011001F024FB0D214BF2021001F0E4
:104010001FFB34214FF4374001F01AFB34214BF2DF
:10402000017001F015FB34214BF2027001F010FB1E
:1040300000214FF4324001F00BFB00214BF2012034
:1040400001F006FB00214BF2022001F001FB2421CC
:104050004FF4384001F0FCFA24214BF6010001F046
:10406000F7FA24214BF6020001F0F2FA01214FF495
:104070003F4001F0EDFA0F214FF4334001F0E8FA30
:104080000F2100E0FEE34BF2013001F0E1FA0F21D5
:104090004BF2023001F0DCFA34214FF4394001F0E8
:1040A000D7FA34214BF6011001F0D2FA34214BF645
:1040B000021001F0CDFA08214FF4354001F0C8FAA2
:1040C00008214BF2015001F0C3FA08214BF20250D3
:1040D00001F0BEFA03214FF4424001F0B9FA242165
:1040E0004FF43A4001F0B4FA24214BF6012001F0DC
:1040F000AFFA24214BF6022001F0AAFA00214FF476
:104100003C4001F0A5FA78214BF6014001F0A0FAFD
:1041100000214BF6024001F09BFA00214FF43D4094
:1041200001F096FA78214BF6015001F091FA002146
:104130004BF6025001F08CFA00214FF43E4001F0A2
:1041400087FA64214BF6016001F082FA00214FF4F6
:10415000514001F07DFA33214DF2011001F078FA5F
:1041600000214DF2021001F073FA34214DF20310D8
:1041700001F06EFA00214DF2041001F069FA3A21C3
:104180004DF2051001F064FA00214DF2061001F025
:104190005FFA4A214DF2071001F05AFA00214DF260
:1041A000081001F055FA5C214DF2091001F050FAA7
:1041B00000214DF20A1001F04BFA81214DF20B1053
:1041C00001F046FA00214DF20C1001F041FAA6214F
:1041D0004DF20D1001F03CFA00214DF20E1001F0ED
:1041E00037FAE5214DF20F1001F032FA01214DF2BC
:1041F000101001F02DFA13214DF2111001F028FAE0
:1042000001214DF2121001F023FA54214DF2131046
:1042100001F01EFA01214DF2141001F019FA822169
:104220004DF2151001F014FA01214DF2161001F0B3
:104230000FFACA214DF2171001F00AFA02214DF2CD
:10424000181001F005FA00214DF2191001F000FAE2
:1042500002214DF21A1001F0FBF901214DF21B1061
:1042600001F0F6F902214DF21C1001F0F1F93421B0
:104270004DF21D1001F0ECF902214DF21E1001F07B
:10428000E7F967214DF21F1001F0E2F902214DF22A
:10429000201001F0DDF984214DF2211001F0D8F950
:1042A00002214DF2221001F0D3F9A4214DF2231086
:1042B00001F0CEF902214DF2241001F0C9F9B72125
:1042C0004DF2251001F0C4F902214DF2261001F043
:1042D000BFF9CF214DF2271001F0BAF902214DF2BA
:1042E000281001F0B5F9DE214DF2291001F0B0F9E6
:1042F00002214DF22A1001F0ABF9F2214DF22B1000
:1043000001F0A6F902214DF22C1001F0A1F9FE21D5
:104310004DF22D1001F09CF903214DF22E1001F009
:1043200097F910214DF22F1001F092F903214DF26F
:10433000301001F08DF933214DF2311001F088F980
:1043400003214DF2321001F083F96D214DF233104B
:1043500001F07EF900214FF4524001F079F9332148
:104360004DF2012001F074F900214DF2022001F01C
:104370006FF901E0D200002034214DF2032001F05A
:1043800067F900214DF2042001F062F93A214DF263
:10439000052001F05DF900214DF2062001F058F9E9
:1043A0004A214DF2072001F053F900214DF2082077
:1043B00001F04EF95C214DF2092001F049F900218C
:1043C0004DF20A2001F044F981214DF20B2001F059
:1043D0003FF900214DF20C2001F03AF9A6214DF2EF
:1043E0000D2001F035F900214DF20E2001F030F9D9
:1043F000E5214DF20F2001F02BF901214DF21020A3
:1044000001F026F913214DF2112001F021F90121CB
:104410004DF2122001F01CF954214DF2132001F04D
:1044200017F901214DF2142001F012F982214DF209
:10443000152001F00DF901214DF2162001F008F9C7
:10444000CA214DF2172001F003F902214DF2182084
:1044500001F0FEF800214DF2192001F0F9F80221D7
:104460004DF21A2001F0F4F801214DF21B2001F069
:10447000EFF802214DF21C2001F0EAF834214DF250
:104480001D2001F0E5F802214DF21E2001F0E0F8B8
:1044900067214DF21F2001F0DBF802214DF22020B0
:1044A00001F0D6F884214DF2212001F0D1F802214B
:1044B0004DF2222001F0CCF8A4214DF2232001F08E
:1044C000C7F802214DF2242001F0C2F8B7214DF2C5
:1044D000252001F0BDF802214DF2262001F0B8F8A8
:1044E000CF214DF2272001F0B3F802214DF2282010
:1044F00001F0AEF8DE214DF2292001F0A9F80221E9
:104500004DF22A2001F0A4F8F2214DF22B2001F007
:104510009FF802214DF22C2001F09AF8FE214DF275
:104520002D2001F095F803214DF22E2001F090F896
:1045300010214DF22F2001F08BF803214DF2302095
:1045400001F086F833214DF2312001F081F803218A
:104550004DF2322001F07CF86D214DF2332001F054
:1045600077F800214FF4534001F072F833214DF2F7
:10457000013001F06DF800214DF2023001F068F8D1
:1045800034214DF2033001F063F800214DF2043084
:1045900001F05EF83A214DF2053001F059F80021A2
:1045A0004DF2063001F054F84A214DF2073001F087
:1045B0004FF800214DF2083001F04AF85C214DF22D
:1045C000093001F045F800214DF20A3001F040F8C1
:1045D00081214DF20B3001F03BF800214DF20C30FF
:1045E00001F036F8A6214DF20D3001F031F800212E
:1045F0004DF20E3001F02CF8E5214DF20F3001F0B4
:1046000027F801214DF2103001F022F813214DF26C
:10461000113001F01DF801214DF2123001F018F8AF
:1046200054214DF2133001F013F801214DF21430F2
:1046300001F00EF882214DF2153001F009F8012148
:104640004DF2163001F004F8CA214DF2173000F097
:10465000FFFF02214DF2183000F0FAFF00214DF269
:10466000193000F0F5FF02214DF21A3000F0F0FF92
:1046700001214DF21B3000F0EBFF02214DF21C3006
:1046800000F0E6FF34214DF21D3000F0E1FF022181
:104690004DF21E3000F0DCFF67214DF21F3000F0BC
:1046A000D7FF02214DF2203000F0D2FF84214DF2DD
:1046B000213000F0CDFF02214DF2223000F0C8FF82
:1046C000A4214DF2233000F0C3FF02214DF224302B
:1046D00000F0BEFFB7214DF2253000F0B9FF0221F6
:1046E0004DF2263000F0B4FFCF214DF2273000F01C
:1046F000AFFF02214DF2283000F0AAFFDE214DF27B
:10470000293000F0A5FF02214DF22A3000F0A0FF71
:10471000F2214DF22B3000F09BFF02214DF22C30A4
:1047200000F096FFFE214DF22D3000F091FF0321A5
:104730004DF22E3000F08CFF10214DF22F3000F0A2
:1047400087FF03214DF2303000F082FF33214DF21C
:10475000313000F07DFF03214DF2323000F078FF60
:104760006D214DF2333000F073FF00214FF45440BF
:1047700000F06EFF33214DF2014000F069FF00218F
:104780004DF2024000F064FF34214DF2034000F08E
:104790005FFF00214DF2044000F05AFF3A214DF234
:1047A000054000F055FF00214DF2064000F050FF9B
:1047B0004A214DF2074000F04BFF00214DF2084026
:1047C00000F046FF5C214DF2094000F041FF00215E
:1047D0004DF20A4000F03CFF81214DF20B4000F009
:1047E00037FF00214DF20C4000F032FFA6214DF2C0
:1047F0000D4000F02DFF00214DF20E4000F028FF8B
:10480000E5214DF20F4000F023FF01214DF2104051
:1048100000F01EFF13214DF2114000F019FF01219D
:104820004DF2124000F014FF54214DF2134000F0FD
:104830000FFF01214DF2144000F00AFF82214DF2DA
:10484000154000F005FF01214DF2164000F000FF79
:10485000CA214DF2174000F0FBFE02214DF2184034
:1048600000F0F6FE00214DF2194000F0F1FE0221A9
:104870004DF21A4000F0ECFE01214DF21B4000F019
:10488000E7FE00E003E302214DF21C4000F0E0FEF1
:1048900034214DF21D4000F0DBFE02214DF21E409E
:1048A00000F0D6FE67214DF21F4000F0D1FE02213C
:1048B0004DF2204000F0CCFE84214DF2214000F06A
:1048C000C7FE02214DF2224000F0C2FEA4214DF2AB
:1048D000234000F0BDFE02214DF2244000F0B8FE5E
:1048E000B7214DF2254000F0B3FE02214DF22640E3
:1048F00000F0AEFECF214DF2274000F0A9FE0221CC
:104900004DF2284000F0A4FEDE214DF2294000F0D7
:104910009FFE02214DF22A4000F09AFEF2214DF254
:104920002B4000F095FE02214DF22C4000F090FE4D
:10493000FE214DF22D4000F08BFE03214DF22E4062
:1049400000F086FE10214DF22F4000F081FE032181
:104950004DF2304000F07CFE33214DF2314000F04A
:1049600077FE03214DF2324000F072FE6D214DF2D0
:10497000334000F06DFE00214FF4554000F068FE1A
:1049800033214DF2015000F063FE00214DF2025040
:1049900000F05EFE34214DF2035000F059FE00217C
:1049A0004DF2045000F054FE3A214DF2055000F053
:1049B0004FFE00214DF2065000F04AFE4A214DF212
:1049C000075000F045FE00214DF2085000F040FE77
:1049D0005C214DF2095000F03BFE00214DF20A50DF
:1049E00000F036FE81214DF20B5000F031FE002127
:1049F0004DF20C5000F02CFEA6214DF20D5000F0AF
:104A000027FE00214DF20E5000F022FEE5214DF26E
:104A10000F5000F01DFE01214DF2105000F018FE65
:104A200013214DF2115000F013FE01214DF21250EE
:104A300000F00EFE54214DF2135000F009FE01214A
:104A40004DF2145000F004FE82214DF2155000F09A
:104A5000FFFD01214DF2165000F0FAFDCA214DF282
:104A6000175000F0F5FD02214DF2185000F0F0FD56
:104A700000214DF2195000F0EBFD02214DF21A50C9
:104A800000F0E6FD01214DF21B5000F0E1FD022196
:104A90004DF21C5000F0DCFD34214DF21D5000F0B1
:104AA000D7FD02214DF21E5000F0D2FD67214DF2DC
:104AB0001F5000F0CDFD02214DF2205000F0C8FD46
:104AC00084214DF2215000F0C3FD02214DF222500D
:104AD00000F0BEFDA4214DF2235000F0B9FD0221EB
:104AE0004DF2245000F0B4FDB7214DF2255000F0F6
:104AF000AFFD02214DF2265000F0AAFDCF214DF26C
:104B0000275000F0A5FD02214DF2285000F0A0FD35
:104B1000DE214DF2295000F09BFD02214DF22A507A
:104B200000F096FDF2214DF22B5000F091FD022194
:104B30004DF22C5000F08CFDFE214DF22D5000F076
:104B400087FD03214DF22E5000F082FD10214DF221
:104B50002F5000F07DFD03214DF2305000F078FD24
:104B600033214DF2315000F073FD03214DF23250EC
:104B700000F06EFD6D214DF2335000F069FD002113
:104B80004FF4564000F064FD33214DF2016000F017
:104B90005FFD00214DF2026000F05AFD34214DF21C
:104BA000036000F055FD00214DF2046000F050FD5F
:104BB0003A214DF2056000F04BFD00214DF20660F8
:104BC00000F046FD4A214DF2076000F041FD002152
:104BD0004DF2086000F03CFD5C214DF2096000F0F0
:104BE00037FD00214DF20A6000F032FD81214DF2C7
:104BF0000B6000F02DFD00214DF20C6000F028FD4F
:104C0000A6214DF20D6000F023FD00214DF20E6053
:104C100000F01EFDE5214DF20F6000F019FD0121AD
:104C20004DF2106000F014FD13214DF2116000F000
:104C30000FFD01214DF2126000F00AFD54214DF2EA
:104C4000136000F005FD01214DF2146000F000FD3D
:104C500082214DF2156000F0FBFC01214DF216603F
:104C600000F0F6FCCA214DF2176000F0F1FC0221C1
:104C70004DF2186000F0ECFC00214DF2196000F0DC
:104C8000E7FC02214DF21A6000F0E2FC01214DF236
:104C90001B6000F0DDFC02214DF21C6000F0D8FC2E
:104CA00034214DF21D6000F0D3FC02214DF21E6054
:104CB00000F0CEFC67214DF21F6000F0C9FC02211C
:104CC0004DF2206000F0C4FC84214DF2216000F020
:104CD000BFFC02214DF2226000F0BAFCA4214DF28B
:104CE000236000F0B5FC02214DF2246000F0B0FC1E
:104CF000B7214DF2256000F0ABFC02214DF2266099
:104D000000F0A6FCCF214DF2276000F0A1FC0221AB
:104D10004DF2286000F09CFCDE214DF2296000F08D
:104D200097FC02214DF22A6000F092FCF2214DF234
:104D30002B6000F08DFC02214DF22C6000F088FC0D
:104D4000FE214DF22D6000F083FC03214DF22E6018
:104D500000F07EFC10214DF22F6000F079FC032161
:104D60004DF2306000F074FC33214DF2316000F000
:104D70006FFC03214DF2326000F06AFC6D214DF2B0
:104D8000336000F065FC55214FF4704000F060FC8A
:104D9000AA214FF2010000F05BFC52214FF2020009
:104DA00000F056FC08214FF2030000F051FC0021F6
:104DB0004FF2040000F04CFCCC214FF4314000F0E5
:104DC00047FC00214BF2011000F042FC05214FF49A
:104DD000364000F03DFC70214FF4374000F038FCC5
:104DE00070214BF2017000F033FC01214FF4384088
:104DF00000F02EFC03214BF6010000F029FC0321FA
:104E00004BF6020000F024FC03214BF6030000F0F7
:104E10001FFC02214FF43C4000F01AFC00214BF62D
:104E2000014000F015FC00214BF6024000F010FCA0
:104E3000D0214FF4494000F00BFC02214CF6011048
:104E400000F006FC50214CF6021000F001FC50214D
:104E50004CF6031000F0FCFB50214CF6041000F05F
:104E6000F7FB00214FF4545000F0F2FB55214FF4B2
:104E7000685000F0EDFB4FF4885000F0D9FB78202B
:104E800001F0DEFB4FF4245000F0D2FBBDE065489A
:104E9000808841F663118842F8D1E22000F0C8FB17
:104EA0001D2000F0BFFB022000F0BCFB042000F03E
:104EB000B9FB642001F0C4FBE02000F0B9FB012045
:104EC00000F0B0FB0A2001F095FBE02000F0B0FB01
:104ED000032000F0A7FB0C2001F08CFB012000F068
:104EE000A7FB0A2001F086FBE62000F0A1FB2F20A3
:104EF00000F098FBFF2000F095FBFF2000F092FBF4
:104F0000B02000F095FB202000F08CFB002000F08A
:104F100089FB032000F086FB40F21F3000F082FB8B
:104F2000012000F07FFB40F2DF1000F07BFB00204F
:104F300000F078FBB42000F07BFB042000F072FB53
:104F400040F21F4000F06EFB002000F06BFB2E20B3
:104F500000F068FB002000F065FB002000F062FB21
:104F6000002000F05FFB002000F05CFBB62000F0AA
:104F70005FFB022000F056FB4FF4037000F052FB81
:104F8000002000F04FFB172000F04CFB152000F034
:104F900049FB002000F046FB002000F043FBF0201E
:104FA00000F046FB032000F03DFB292000F040FB11
:104FB000D02000F03DFB002000F034FBBE2000F0CC
:104FC00037FB052000F02EFBFE2000F02BFB01201C
:104FD00000F028FB002000F025FB002000F022FB61
:104FE000002000F01FFBB82000F022FB032000F09F
:104FF00019FB012000F016FBBA2000F019FB01207C
:1050000000F010FB642000F027F80020FDF77AFB89
:105010000120054908604FF6FF70FDF7EFFA1FB059
:1050200000BD0000D20000208081214210B5024660
:10503000012000E050430B1EA1F10104E1B2F9D1BF
:1050400010BD000008B5034800880090BDF80000BE
:1050500008BD00000008006C2DE9F0470446BE20A2
:1050600000F0E6FA052000F0DDFA204602F0DFF855
:1050700007464FF066320C4B02F0ECF8054602F0A2
:10508000A9F81FFA80F9484600F0CCFA012000F098
:10509000C9FAFF2000F0C6FA002000F0C3FA002091
:1050A00000F0C0FABDE8F0876666044070B50446BB
:1050B0000023002689488079012805D18748808807
:1050C00041F66311884208D184488079F0B9834859
:1050D000808841F66311884218D1082C15D2DFE888
:1050E00004F00406080A0C0E101206240DE0072432
:1050F0000BE0042409E0052407E0012405E0002476
:1051000003E0032401E0022400BF00BF082C1CD2EE
:10511000DFE804F00406090C0F12151800BF14E0B4
:1051200043F0800311E043F040030EE043F0C0037E
:105130000BE043F0200308E043F0600305E043F098
:10514000A00302E043F0E00300BF00BF6348808893
:1051500045F21051884202D14FF4585600E03626ED
:105160005E48808849F24131884205D05B4880889A
:1051700047F28971884201D143F00803194630464D
:1051800000F066FA5548808841F6631188421DD0C8
:1051900003F0200068B1514800885049498888428E
:1051A00014DA4E48058840884C49088008464580F6
:1051B0000CE04A48008849494988884206DD47484A
:1051C00005884088454908800846458043488088CE
:1051D00045F21051884252D14049488900F028FADE
:1051E000002000F01FFA3D494989491C88B200F0AF
:1051F0001FFA002000F016FA38494989891C88B244
:1052000000F016FA35490988491EC1F30F2000F055
:1052100009FA32494989C91C88B200F009FA2F49B4
:105220000978491EC8B200F0FDF92C49888900F0C0
:10523000FFF9002000F0F6F928498989491C88B255
:1052400000F0F6F9002000F0EDF924498989891C65
:1052500088B200F0EDF921494988491EC1F30F20B9
:1052600000F0E0F91D498989C91C88B200F0E0F915
:105270001A498978491EC8B200F0D4F92DE01749BF
:10528000488900F0D5F9002000F0CCF9002000F0AA
:10529000C9F912490988491EC1F30F2000F0C2F96B
:1052A0000E490978491EC8B200F0BCF90B4988893B
:1052B00000F0BEF9002000F0B5F9002000F0B2F9CE
:1052C00006494988491EC1F30F2000F0ABF9034994
:1052D0008978491EC8B200F0A5F970BDD20000203F
:1052E00000B502460B464548808841F66311884266
:1052F00047D142488079A8B940480088401E801AAA
:1053000082B23E49488900F093F9002000F08AF902
:10531000002000F087F9101200F084F9D0B200F0FC
:1053200081F916E03549488900F082F9101200F041
:1053300079F9D0B200F076F930490988491EC1F3F5
:105340000F2000F06FF92D490978491EC8B200F00E
:1053500069F92A49888900F06BF9181200F062F99E
:10536000D8B200F05FF925494988491EC1F30F20E2
:1053700000F058F921498978491EC8B200F052F965
:105380003AE01E48808845F21051884220D11B49DE
:10539000488900F04DF9101200F044F91749498985
:1053A000491C88B200F044F9D0B200F03BF913492F
:1053B000888900F03DF9181200F034F90F49898905
:1053C000491C88B200F034F9D8B200F02BF913E090
:1053D0000A49488900F02CF9101200F023F9D0B2E4
:1053E00000F020F90549888900F022F9181200F030
:1053F00019F9D8B200F016F900BD0000D200002063
:105400002DE9F84F80460E4617461C46B346204607
:10541000E31704EB5373DB1021464FEAE47C04EB03
:105420005C7C4FEAEC0CA4EBCC0CBCF1000F02D07E
:105430004FF0010C01E04FF0000C6344224604EBF6
:10544000D27C4FEA6C0C03FB0CF3DBB20093A7F1A8
:105450002000C7B2002556E00C2C07D107EB47000F
:105460002B4901EB800010F8059013E0102C05D1BA
:10547000284800EB071010F805900BE0182C07D116
:1054800007EBC700244901EB800010F8059001E00C
:10549000BDE8F88F4FF0000A2FE009F0800030B12E
:1054A0001E48028831464046FDF706FA07E00A9892
:1054B00028B91B48028831464046FDF7FDF94FEAFE
:1054C00049604FEA1069701C86B216484088B042A5
:1054D00000DCDDE7A6EB0B00A0420AD15E4608F136
:1054E00001001FFA80F80F480088404500DCCFE734
:1054F00006E00AF1010000F0FF0ABAF1080FCCDB68
:1055000000BF681CC5B200988542A5DB00BFBFE79D
:10551000947F000808840008F88900083A000020F9
:105520003C000020D20000202DE9FF4F81B007464B
:1055300091461E460E9D4FF0000A002439E0301BB4
:10554000401EC1B20A20FFF771FDB9FBF0F00A213D
:10555000B0FBF1F201FB1208BAF1000F16D1701E78
:10556000A04213DDB8F1000F0ED10020AB4605EBD1
:10557000DB71491001FB0471009088B22B46202298
:105580000299FFF73DFF12E04FF0010A0020AB4601
:1055900005EBDB71491001FB0471009088B208F142
:1055A0003001CAB22B460299FFF72AFF00BF601CE8
:1055B000C4B2B442C3DB05B0BDE8F08F2DE9F847B3
:1055C00004460D4690469946DDE9096704F0FF0A56
:1055D00008EB04001FFA80F809EB05001FFA80F9B8
:1055E00016E0444502DB5446A81985B24D4500DB60
:1055F00014E0002000903A78334629462046FFF711
:10560000FFFE304606EBD07104EB61018CB27F1CCB
:1056100038787E2802DC38782028E2DA00BFBDE83E
:10562000F887000001490880704700000008006CFE
:105630000149088070470000FE07006C024800899D
:105640000249088070470000D2000020FE07006C6D
:10565000024A1080921C118070470000FE07006C07
:1056600000BFFEE70948407901280DD108480068CD
:10567000401C0749086008460068012801DD002039
:10568000086000200149487170470000A000002018
:105690000C0000207047000070B5002100230F228D
:1056A000C47804B3154C246804F4E064C4F5E064E1
:1056B000210AC1F10403CA40447804FA03F1847852
:1056C0001440214309010E4C0678A155047804F0DA
:1056D0001F050124AC4005786D11AD0005F1E025F2
:1056E000C5F8004109E0047804F01F050124AC402E
:1056F000044D0678761145F8264070BD0CED00E0AB
:1057000000E400E080E100E002490143024A116048
:10571000704700000000FA050CED00E07047000043
:1057200029B1064A52690243044B5A6104E0034A14
:1057300052698243014B5A617047000000100240D9
:1057400029B1064AD2690243044BDA6104E0034AF4
:10575000D2698243014BDA617047000000100240B9
:1057600029B1064A12690243044B1A6104E0034A54
:1057700012698243014B1A61704700000010024019
:1057800029B1064A92690243044B9A6104E0034A34
:1057900092698243014B9A617047000000100240F9
:1057A00029B1064AD2680243044BDA6004E0034A96
:1057B000D2688243014BDA6070470000001002405B
:1057C00030B500210022002400232D4D6D6805F026
:1057D0000C0121B1042905D0082923D105E0294D68
:1057E000056022E0274D05601FE0254D6D6805F43A
:1057F0007012234D6D6805F48034022505EB92424A
:105800001CB9214D554305600BE01D4D6D6805F435
:1058100000351DB11C4D5543056002E0194D55433F
:10582000056002E0174D056000BF00BF144D6D68B4
:1058300005F0F0010909154D6B5C0568DD40456018
:105840000F4D6D6805F4E061090A104D6B5C456809
:10585000DD4085600A4D6D6805F46051C90A0B4D45
:105860006B5C4568DD40C560054D6D6805F44041E1
:10587000890B074D6B5CC568B5FBF3F5056130BD61
:105880000010024000127A0000093D008A0000204A
:105890009A000020704710B500F002F810BD00001B
:1058A0000CB50020019000903348006840F480302F
:1058B0003149086000BF3048006800F400300090B3
:1058C0000198401C0190009818B90198B0F5A06F9C
:1058D000F1D12948006800F4003010B10120009097
:1058E00001E0002000900098012843D1234800687F
:1058F00040F01000214908600846006820F00300CD
:1059000008600846006840F0020008601A484068D5
:10591000194948600846406848600846406840F4B5
:10592000806048600846406820F47C104860084663
:10593000406840F4E81048600846006840F0807015
:10594000086000BF0C48006800F000700028F9D023
:105950000948406820F0030007494860084640684D
:1059600040F00200486000BF0348406800F00C00AF
:105970000828F9D10CBD00000010024000200240B0
:105980002DE9F04304460E4615469C4600210023AF
:1059900049E0605C00F0800010B9605CE85440E0D1
:1059A000605C00F0F000E02838D1881CB04203DBD6
:1059B0004FF0FF30BDE8F083605C00074FEA10480D
:1059C000481C205C00F03F0048EA801001F102080A
:1059D00014F8088008F03F0840EA0807A7F59C4043
:1059E000DFF84C8038F8102010464FEAE27802EBDE
:1059F0001868C8F3072805F803804FEAE27802EB3D
:105A000018684FEA2828A2EB082808F0FF0903F1DC
:105A1000010805F808905B1C891C02E04FF0FF307C
:105A2000C8E7491C5B1CB142B3DB0020C2E70000A1
:105A300024A30008042808D14FF0E021096941F0AF
:105A400004014FF0E022116107E04FF0E021096905
:105A500021F004014FF0E02211617047704700000F
:105A600010B51348006840F001001149086008466D
:105A70004068104908400E494860084600680E49D1
:105A800008400B4908600846006820F48020086040
:105A90000846406820F4FE0048604FF41F0088600C
:105AA000FFF7F9FE4FF000600449086010BD0000E8
:105AB000001002400000FFF8FFFFF6FE08ED00E0D6
:105AC00010B501210B4800F0A6F890B10A48006813
:105AD000401C0949086009480068401C07490860E3
